{
  "_format": "hh-sol-artifact-1",
  "contractName": "PlatformCore",
  "sourceName": "contracts/PlatformCore.sol",
  "abi": [
    {
      "inputs": [
        {
          "internalType": "address",
          "name": "initialOwner",
          "type": "address"
        },
        {
          "internalType": "address",
          "name": "_soulboundNFTAddress",
          "type": "address"
        }
      ],
      "stateMutability": "nonpayable",
      "type": "constructor"
    },
    {
      "anonymous": false,
      "inputs": [
        {
          "indexed": true,
          "internalType": "address",
          "name": "guideAddress",
          "type": "address"
        },
        {
          "indexed": false,
          "internalType": "string",
          "name": "name",
          "type": "string"
        },
        {
          "indexed": false,
          "internalType": "string",
          "name": "serviceType",
          "type": "string"
        }
      ],
      "name": "GuideRegistered",
      "type": "event"
    },
    {
      "anonymous": false,
      "inputs": [
        {
          "indexed": true,
          "internalType": "address",
          "name": "guideAddress",
          "type": "address"
        }
      ],
      "name": "GuideRemoved",
      "type": "event"
    },
    {
      "anonymous": false,
      "inputs": [
        {
          "indexed": true,
          "internalType": "address",
          "name": "guideAddress",
          "type": "address"
        },
        {
          "indexed": false,
          "internalType": "uint256",
          "name": "nftTokenId",
          "type": "uint256"
        }
      ],
      "name": "GuideVerified",
      "type": "event"
    },
    {
      "anonymous": false,
      "inputs": [
        {
          "indexed": true,
          "internalType": "address",
          "name": "previousOwner",
          "type": "address"
        },
        {
          "indexed": true,
          "internalType": "address",
          "name": "newOwner",
          "type": "address"
        }
      ],
      "name": "OwnershipTransferred",
      "type": "event"
    },
    {
      "anonymous": false,
      "inputs": [
        {
          "indexed": true,
          "internalType": "address",
          "name": "tourist",
          "type": "address"
        },
        {
          "indexed": true,
          "internalType": "address",
          "name": "guide",
          "type": "address"
        },
        {
          "indexed": false,
          "internalType": "uint256",
          "name": "amount",
          "type": "uint256"
        }
      ],
      "name": "PaymentMade",
      "type": "event"
    },
    {
      "anonymous": false,
      "inputs": [
        {
          "indexed": true,
          "internalType": "address",
          "name": "touristAddress",
          "type": "address"
        },
        {
          "indexed": false,
          "internalType": "string",
          "name": "name",
          "type": "string"
        }
      ],
      "name": "TouristRegistered",
      "type": "event"
    },
    {
      "anonymous": false,
      "inputs": [
        {
          "indexed": true,
          "internalType": "address",
          "name": "touristAddress",
          "type": "address"
        }
      ],
      "name": "TouristRemoved",
      "type": "event"
    },
    {
      "inputs": [
        {
          "internalType": "address",
          "name": "guideAddress",
          "type": "address"
        }
      ],
      "name": "getGuideDetails",
      "outputs": [
        {
          "internalType": "address",
          "name": "walletAddress",
          "type": "address"
        },
        {
          "internalType": "string",
          "name": "name",
          "type": "string"
        },
        {
          "internalType": "string",
          "name": "serviceType",
          "type": "string"
        },
        {
          "internalType": "bool",
          "name": "isVerified",
          "type": "bool"
        },
        {
          "internalType": "uint256",
          "name": "nftTokenId",
          "type": "uint256"
        },
        {
          "internalType": "bool",
          "name": "isRegistered",
          "type": "bool"
        }
      ],
      "stateMutability": "view",
      "type": "function"
    },
    {
      "inputs": [],
      "name": "getRegisteredGuides",
      "outputs": [
        {
          "internalType": "address[]",
          "name": "",
          "type": "address[]"
        }
      ],
      "stateMutability": "view",
      "type": "function"
    },
    {
      "inputs": [],
      "name": "getRegisteredTourists",
      "outputs": [
        {
          "internalType": "address[]",
          "name": "",
          "type": "address[]"
        }
      ],
      "stateMutability": "view",
      "type": "function"
    },
    {
      "inputs": [
        {
          "internalType": "address",
          "name": "touristAddress",
          "type": "address"
        }
      ],
      "name": "getTouristDetails",
      "outputs": [
        {
          "internalType": "address",
          "name": "walletAddress",
          "type": "address"
        },
        {
          "internalType": "string",
          "name": "name",
          "type": "string"
        },
        {
          "internalType": "bool",
          "name": "isRegistered",
          "type": "bool"
        }
      ],
      "stateMutability": "view",
      "type": "function"
    },
    {
      "inputs": [
        {
          "internalType": "address",
          "name": "",
          "type": "address"
        }
      ],
      "name": "guides",
      "outputs": [
        {
          "internalType": "address",
          "name": "walletAddress",
          "type": "address"
        },
        {
          "internalType": "string",
          "name": "name",
          "type": "string"
        },
        {
          "internalType": "string",
          "name": "serviceType",
          "type": "string"
        },
        {
          "internalType": "bool",
          "name": "isVerified",
          "type": "bool"
        },
        {
          "internalType": "uint256",
          "name": "nftTokenId",
          "type": "uint256"
        },
        {
          "internalType": "bool",
          "name": "isRegistered",
          "type": "bool"
        }
      ],
      "stateMutability": "view",
      "type": "function"
    },
    {
      "inputs": [
        {
          "internalType": "address",
          "name": "guideAddress",
          "type": "address"
        }
      ],
      "name": "isGuideVerified",
      "outputs": [
        {
          "internalType": "bool",
          "name": "",
          "type": "bool"
        }
      ],
      "stateMutability": "view",
      "type": "function"
    },
    {
      "inputs": [
        {
          "internalType": "address",
          "name": "touristAddress",
          "type": "address"
        }
      ],
      "name": "isTouristRegistered",
      "outputs": [
        {
          "internalType": "bool",
          "name": "",
          "type": "bool"
        }
      ],
      "stateMutability": "view",
      "type": "function"
    },
    {
      "inputs": [],
      "name": "owner",
      "outputs": [
        {
          "internalType": "address",
          "name": "",
          "type": "address"
        }
      ],
      "stateMutability": "view",
      "type": "function"
    },
    {
      "inputs": [
        {
          "internalType": "address payable",
          "name": "guideAddress",
          "type": "address"
        }
      ],
      "name": "payGuide",
      "outputs": [],
      "stateMutability": "payable",
      "type": "function"
    },
    {
      "inputs": [
        {
          "internalType": "string",
          "name": "name",
          "type": "string"
        },
        {
          "internalType": "string",
          "name": "serviceType",
          "type": "string"
        }
      ],
      "name": "registerGuide",
      "outputs": [],
      "stateMutability": "nonpayable",
      "type": "function"
    },
    {
      "inputs": [
        {
          "internalType": "string",
          "name": "name",
          "type": "string"
        }
      ],
      "name": "registerTourist",
      "outputs": [],
      "stateMutability": "nonpayable",
      "type": "function"
    },
    {
      "inputs": [
        {
          "internalType": "uint256",
          "name": "",
          "type": "uint256"
        }
      ],
      "name": "registeredGuideAddresses",
      "outputs": [
        {
          "internalType": "address",
          "name": "",
          "type": "address"
        }
      ],
      "stateMutability": "view",
      "type": "function"
    },
    {
      "inputs": [
        {
          "internalType": "uint256",
          "name": "",
          "type": "uint256"
        }
      ],
      "name": "registeredTouristAddresses",
      "outputs": [
        {
          "internalType": "address",
          "name": "",
          "type": "address"
        }
      ],
      "stateMutability": "view",
      "type": "function"
    },
    {
      "inputs": [
        {
          "internalType": "address",
          "name": "guideAddress",
          "type": "address"
        }
      ],
      "name": "removeGuide",
      "outputs": [],
      "stateMutability": "nonpayable",
      "type": "function"
    },
    {
      "inputs": [
        {
          "internalType": "address",
          "name": "touristAddress",
          "type": "address"
        }
      ],
      "name": "removeTourist",
      "outputs": [],
      "stateMutability": "nonpayable",
      "type": "function"
    },
    {
      "inputs": [],
      "name": "renounceOwnership",
      "outputs": [],
      "stateMutability": "nonpayable",
      "type": "function"
    },
    {
      "inputs": [],
      "name": "soulboundNFT",
      "outputs": [
        {
          "internalType": "contract SoulboundNFT",
          "name": "",
          "type": "address"
        }
      ],
      "stateMutability": "view",
      "type": "function"
    },
    {
      "inputs": [
        {
          "internalType": "address",
          "name": "",
          "type": "address"
        }
      ],
      "name": "tourists",
      "outputs": [
        {
          "internalType": "address",
          "name": "walletAddress",
          "type": "address"
        },
        {
          "internalType": "string",
          "name": "name",
          "type": "string"
        },
        {
          "internalType": "bool",
          "name": "isRegistered",
          "type": "bool"
        }
      ],
      "stateMutability": "view",
      "type": "function"
    },
    {
      "inputs": [
        {
          "internalType": "address",
          "name": "newOwner",
          "type": "address"
        }
      ],
      "name": "transferOwnership",
      "outputs": [],
      "stateMutability": "nonpayable",
      "type": "function"
    },
    {
      "inputs": [
        {
          "internalType": "address",
          "name": "guideAddress",
          "type": "address"
        },
        {
          "internalType": "string",
          "name": "name",
          "type": "string"
        },
        {
          "internalType": "string",
          "name": "serviceType",
          "type": "string"
        },
        {
          "internalType": "string",
          "name": "areaOfExpertise",
          "type": "string"
        },
        {
          "internalType": "string",
          "name": "location",
          "type": "string"
        },
        {
          "internalType": "uint256",
          "name": "expiryDate",
          "type": "uint256"
        }
      ],
      "name": "verifyGuide",
      "outputs": [],
      "stateMutability": "nonpayable",
      "type": "function"
    }
  ],
  "bytecode": "0x60806040523480156200001157600080fd5b5060405162003418380380620034188339818101604052810190620000379190620001e7565b620000576200004b620000b160201b60201c565b620000b960201b60201c565b6200006882620000b960201b60201c565b80600160006101000a81548173ffffffffffffffffffffffffffffffffffffffff021916908373ffffffffffffffffffffffffffffffffffffffff16021790555050506200022e565b600033905090565b60008060009054906101000a900473ffffffffffffffffffffffffffffffffffffffff169050816000806101000a81548173ffffffffffffffffffffffffffffffffffffffff021916908373ffffffffffffffffffffffffffffffffffffffff1602179055508173ffffffffffffffffffffffffffffffffffffffff168173ffffffffffffffffffffffffffffffffffffffff167f8be0079c531659141344cd1fd0a4f28419497f9722a3daafe3b4186f6b6457e060405160405180910390a35050565b600080fd5b600073ffffffffffffffffffffffffffffffffffffffff82169050919050565b6000620001af8262000182565b9050919050565b620001c181620001a2565b8114620001cd57600080fd5b50565b600081519050620001e181620001b6565b92915050565b600080604083850312156200020157620002006200017d565b5b60006200021185828601620001d0565b92505060206200022485828601620001d0565b9150509250929050565b6131da806200023e6000396000f3fe60806040526004361061011f5760003560e01c80638da5cb5b116100a0578063c0351cb111610064578063c0351cb1146103f3578063d7e2ba1b14610435578063f2fde38b1461045e578063f3c8b57514610487578063ffed0827146104c45761011f565b80638da5cb5b1461031b5780638e03b5e8146103465780638f4a02ad14610383578063a04d4025146103ae578063be5d60f3146103ca5761011f565b806354ad8b58116100e757806354ad8b581461021e578063715018a614610249578063797600721461026057806382adb9f21461029f5780638996cb91146102de5761011f565b806307ccd5cf1461012457806321f8dbe01461016657806323fbc06e1461018f5780632d439a51146101b857806338326837146101e1575b600080fd5b34801561013057600080fd5b5061014b60048036038101906101469190611ffe565b6104ef565b60405161015d969594939291906120fe565b60405180910390f35b34801561017257600080fd5b5061018d600480360381019061018891906122ce565b610675565b005b34801561019b57600080fd5b506101b660048036038101906101b191906123cb565b610941565b005b3480156101c457600080fd5b506101df60048036038101906101da9190611ffe565b610c40565b005b3480156101ed57600080fd5b5061020860048036038101906102039190612443565b610f63565b6040516102159190612470565b60405180910390f35b34801561022a57600080fd5b50610233610fa2565b60405161024091906124ea565b60405180910390f35b34801561025557600080fd5b5061025e610fc8565b005b34801561026c57600080fd5b5061028760048036038101906102829190611ffe565b610fdc565b60405161029693929190612505565b60405180910390f35b3480156102ab57600080fd5b506102c660048036038101906102c19190611ffe565b6110f9565b6040516102d593929190612505565b60405180910390f35b3480156102ea57600080fd5b5061030560048036038101906103009190612443565b6111d8565b6040516103129190612470565b60405180910390f35b34801561032757600080fd5b50610330611217565b60405161033d9190612470565b60405180910390f35b34801561035257600080fd5b5061036d60048036038101906103689190611ffe565b611240565b60405161037a9190612543565b60405180910390f35b34801561038f57600080fd5b50610398611299565b6040516103a5919061261c565b60405180910390f35b6103c860048036038101906103c3919061267c565b611327565b005b3480156103d657600080fd5b506103f160048036038101906103ec91906126a9565b61150e565b005b3480156103ff57600080fd5b5061041a60048036038101906104159190611ffe565b6117b4565b60405161042c969594939291906120fe565b60405180910390f35b34801561044157600080fd5b5061045c60048036038101906104579190611ffe565b611984565b005b34801561046a57600080fd5b5061048560048036038101906104809190611ffe565b611c7b565b005b34801561049357600080fd5b506104ae60048036038101906104a99190611ffe565b611cfe565b6040516104bb9190612543565b60405180910390f35b3480156104d057600080fd5b506104d9611d57565b6040516104e6919061261c565b60405180910390f35b60026020528060005260406000206000915090508060000160009054906101000a900473ffffffffffffffffffffffffffffffffffffffff169080600101805461053890612721565b80601f016020809104026020016040519081016040528092919081815260200182805461056490612721565b80156105b15780601f10610586576101008083540402835291602001916105b1565b820191906000526020600020905b81548152906001019060200180831161059457829003601f168201915b5050505050908060020180546105c690612721565b80601f01602080910402602001604051908101604052809291908181526020018280546105f290612721565b801561063f5780601f106106145761010080835404028352916020019161063f565b820191906000526020600020905b81548152906001019060200180831161062257829003601f168201915b5050505050908060030160009054906101000a900460ff16908060040154908060050160009054906101000a900460ff16905086565b61067d611de5565b600260008773ffffffffffffffffffffffffffffffffffffffff1673ffffffffffffffffffffffffffffffffffffffff16815260200190815260200160002060050160009054906101000a900460ff1661070c576040517f08c379a00000000000000000000000000000000000000000000000000000000081526004016107039061279e565b60405180910390fd5b600260008773ffffffffffffffffffffffffffffffffffffffff1673ffffffffffffffffffffffffffffffffffffffff16815260200190815260200160002060030160009054906101000a900460ff161561079c576040517f08c379a00000000000000000000000000000000000000000000000000000000081526004016107939061280a565b60405180910390fd5b6000600160009054906101000a900473ffffffffffffffffffffffffffffffffffffffff1673ffffffffffffffffffffffffffffffffffffffff166393f51b568888888888886040518763ffffffff1660e01b81526004016108039695949392919061282a565b6020604051808303816000875af1158015610822573d6000803e3d6000fd5b505050506040513d601f19601f8201168201806040525081019061084691906128bc565b90506001600260008973ffffffffffffffffffffffffffffffffffffffff1673ffffffffffffffffffffffffffffffffffffffff16815260200190815260200160002060030160006101000a81548160ff02191690831515021790555080600260008973ffffffffffffffffffffffffffffffffffffffff1673ffffffffffffffffffffffffffffffffffffffff168152602001908152602001600020600401819055508673ffffffffffffffffffffffffffffffffffffffff167f532afb777637d38df252aa39c9d8ffcb3527277bbf5de4751c1b20f4df0ecbc38260405161093091906128e9565b60405180910390a250505050505050565b600073ffffffffffffffffffffffffffffffffffffffff163373ffffffffffffffffffffffffffffffffffffffff16036109b0576040517f08c379a00000000000000000000000000000000000000000000000000000000081526004016109a790612950565b60405180910390fd5b600260003373ffffffffffffffffffffffffffffffffffffffff1673ffffffffffffffffffffffffffffffffffffffff16815260200190815260200160002060050160009054906101000a900460ff1615610a40576040517f08c379a0000000000000000000000000000000000000000000000000000000008152600401610a37906129bc565b60405180910390fd5b6040518060c001604052803373ffffffffffffffffffffffffffffffffffffffff1681526020018381526020018281526020016000151581526020016000815260200160011515815250600260003373ffffffffffffffffffffffffffffffffffffffff1673ffffffffffffffffffffffffffffffffffffffff16815260200190815260200160002060008201518160000160006101000a81548173ffffffffffffffffffffffffffffffffffffffff021916908373ffffffffffffffffffffffffffffffffffffffff1602179055506020820151816001019081610b259190612b7e565b506040820151816002019081610b3b9190612b7e565b5060608201518160030160006101000a81548160ff0219169083151502179055506080820151816004015560a08201518160050160006101000a81548160ff0219169083151502179055509050506004339080600181540180825580915050600190039060005260206000200160009091909190916101000a81548173ffffffffffffffffffffffffffffffffffffffff021916908373ffffffffffffffffffffffffffffffffffffffff1602179055503373ffffffffffffffffffffffffffffffffffffffff167ff0269440e3230be4bb7e37312178d9ebc1abe777f78da6873baf928210b1e1748383604051610c34929190612c50565b60405180910390a25050565b610c48611de5565b600260008273ffffffffffffffffffffffffffffffffffffffff1673ffffffffffffffffffffffffffffffffffffffff16815260200190815260200160002060050160009054906101000a900460ff16610cd7576040517f08c379a0000000000000000000000000000000000000000000000000000000008152600401610cce9061279e565b60405180910390fd5b600260008273ffffffffffffffffffffffffffffffffffffffff1673ffffffffffffffffffffffffffffffffffffffff168152602001908152602001600020600080820160006101000a81549073ffffffffffffffffffffffffffffffffffffffff0219169055600182016000610d4e9190611f2f565b600282016000610d5e9190611f2f565b6003820160006101000a81549060ff021916905560048201600090556005820160006101000a81549060ff0219169055505060005b600480549050811015610f1c578173ffffffffffffffffffffffffffffffffffffffff1660048281548110610dcb57610dca612c87565b5b9060005260206000200160009054906101000a900473ffffffffffffffffffffffffffffffffffffffff1673ffffffffffffffffffffffffffffffffffffffff1603610f095760046001600480549050610e259190612ce5565b81548110610e3657610e35612c87565b5b9060005260206000200160009054906101000a900473ffffffffffffffffffffffffffffffffffffffff1660048281548110610e7557610e74612c87565b5b9060005260206000200160006101000a81548173ffffffffffffffffffffffffffffffffffffffff021916908373ffffffffffffffffffffffffffffffffffffffff1602179055506004805480610ecf57610ece612d19565b5b6001900381819060005260206000200160006101000a81549073ffffffffffffffffffffffffffffffffffffffff02191690559055610f1c565b8080610f1490612d48565b915050610d93565b508073ffffffffffffffffffffffffffffffffffffffff167f3426fdca1622233e287ebc89baea67e6ccfd3fb23ebd923106026f35e387af6d60405160405180910390a250565b60048181548110610f7357600080fd5b906000526020600020016000915054906101000a900473ffffffffffffffffffffffffffffffffffffffff1681565b600160009054906101000a900473ffffffffffffffffffffffffffffffffffffffff1681565b610fd0611de5565b610fda6000611e63565b565b60006060600080600360008673ffffffffffffffffffffffffffffffffffffffff1673ffffffffffffffffffffffffffffffffffffffff16815260200190815260200160002090508060000160009054906101000a900473ffffffffffffffffffffffffffffffffffffffff16816001018260020160009054906101000a900460ff1681805461106b90612721565b80601f016020809104026020016040519081016040528092919081815260200182805461109790612721565b80156110e45780601f106110b9576101008083540402835291602001916110e4565b820191906000526020600020905b8154815290600101906020018083116110c757829003601f168201915b50505050509150935093509350509193909250565b60036020528060005260406000206000915090508060000160009054906101000a900473ffffffffffffffffffffffffffffffffffffffff169080600101805461114290612721565b80601f016020809104026020016040519081016040528092919081815260200182805461116e90612721565b80156111bb5780601f10611190576101008083540402835291602001916111bb565b820191906000526020600020905b81548152906001019060200180831161119e57829003601f168201915b5050505050908060020160009054906101000a900460ff16905083565b600581815481106111e857600080fd5b906000526020600020016000915054906101000a900473ffffffffffffffffffffffffffffffffffffffff1681565b60008060009054906101000a900473ffffffffffffffffffffffffffffffffffffffff16905090565b6000600260008373ffffffffffffffffffffffffffffffffffffffff1673ffffffffffffffffffffffffffffffffffffffff16815260200190815260200160002060030160009054906101000a900460ff169050919050565b6060600480548060200260200160405190810160405280929190818152602001828054801561131d57602002820191906000526020600020905b8160009054906101000a900473ffffffffffffffffffffffffffffffffffffffff1673ffffffffffffffffffffffffffffffffffffffff16815260200190600101908083116112d3575b5050505050905090565b600260008273ffffffffffffffffffffffffffffffffffffffff1673ffffffffffffffffffffffffffffffffffffffff16815260200190815260200160002060030160009054906101000a900460ff166113b6576040517f08c379a00000000000000000000000000000000000000000000000000000000081526004016113ad90612ddc565b60405180910390fd5b600034116113f9576040517f08c379a00000000000000000000000000000000000000000000000000000000081526004016113f090612e6e565b60405180910390fd5b60008173ffffffffffffffffffffffffffffffffffffffff163460405161141f90612ebf565b60006040518083038185875af1925050503d806000811461145c576040519150601f19603f3d011682016040523d82523d6000602084013e611461565b606091505b50509050806114a5576040517f08c379a000000000000000000000000000000000000000000000000000000000815260040161149c90612f20565b60405180910390fd5b8173ffffffffffffffffffffffffffffffffffffffff163373ffffffffffffffffffffffffffffffffffffffff167f0a58819e8a8484b4b953261f35757d54a8bb44412938c22784e056a69ffa17c93460405161150291906128e9565b60405180910390a35050565b600073ffffffffffffffffffffffffffffffffffffffff163373ffffffffffffffffffffffffffffffffffffffff160361157d576040517f08c379a000000000000000000000000000000000000000000000000000000000815260040161157490612f8c565b60405180910390fd5b600360003373ffffffffffffffffffffffffffffffffffffffff1673ffffffffffffffffffffffffffffffffffffffff16815260200190815260200160002060020160009054906101000a900460ff161561160d576040517f08c379a000000000000000000000000000000000000000000000000000000000815260040161160490612ff8565b60405180910390fd5b60405180606001604052803373ffffffffffffffffffffffffffffffffffffffff16815260200182815260200160011515815250600360003373ffffffffffffffffffffffffffffffffffffffff1673ffffffffffffffffffffffffffffffffffffffff16815260200190815260200160002060008201518160000160006101000a81548173ffffffffffffffffffffffffffffffffffffffff021916908373ffffffffffffffffffffffffffffffffffffffff16021790555060208201518160010190816116dc9190612b7e565b5060408201518160020160006101000a81548160ff0219169083151502179055509050506005339080600181540180825580915050600190039060005260206000200160009091909190916101000a81548173ffffffffffffffffffffffffffffffffffffffff021916908373ffffffffffffffffffffffffffffffffffffffff1602179055503373ffffffffffffffffffffffffffffffffffffffff167fbc893bb14723c79ec07b43496d1ddfbf7561aacc7902b98bd79cdc97608a0985826040516117a99190613018565b60405180910390a250565b6000606080600080600080600260008973ffffffffffffffffffffffffffffffffffffffff1673ffffffffffffffffffffffffffffffffffffffff16815260200190815260200160002090508060000160009054906101000a900473ffffffffffffffffffffffffffffffffffffffff1681600101826002018360030160009054906101000a900460ff1684600401548560050160009054906101000a900460ff1684805461186290612721565b80601f016020809104026020016040519081016040528092919081815260200182805461188e90612721565b80156118db5780601f106118b0576101008083540402835291602001916118db565b820191906000526020600020905b8154815290600101906020018083116118be57829003601f168201915b505050505094508380546118ee90612721565b80601f016020809104026020016040519081016040528092919081815260200182805461191a90612721565b80156119675780601f1061193c57610100808354040283529160200191611967565b820191906000526020600020905b81548152906001019060200180831161194a57829003601f168201915b505050505093509650965096509650965096505091939550919395565b61198c611de5565b600360008273ffffffffffffffffffffffffffffffffffffffff1673ffffffffffffffffffffffffffffffffffffffff16815260200190815260200160002060020160009054906101000a900460ff16611a1b576040517f08c379a0000000000000000000000000000000000000000000000000000000008152600401611a1290613086565b60405180910390fd5b600360008273ffffffffffffffffffffffffffffffffffffffff1673ffffffffffffffffffffffffffffffffffffffff168152602001908152602001600020600080820160006101000a81549073ffffffffffffffffffffffffffffffffffffffff0219169055600182016000611a929190611f2f565b6002820160006101000a81549060ff0219169055505060005b600580549050811015611c34578173ffffffffffffffffffffffffffffffffffffffff1660058281548110611ae357611ae2612c87565b5b9060005260206000200160009054906101000a900473ffffffffffffffffffffffffffffffffffffffff1673ffffffffffffffffffffffffffffffffffffffff1603611c215760056001600580549050611b3d9190612ce5565b81548110611b4e57611b4d612c87565b5b9060005260206000200160009054906101000a900473ffffffffffffffffffffffffffffffffffffffff1660058281548110611b8d57611b8c612c87565b5b9060005260206000200160006101000a81548173ffffffffffffffffffffffffffffffffffffffff021916908373ffffffffffffffffffffffffffffffffffffffff1602179055506005805480611be757611be6612d19565b5b6001900381819060005260206000200160006101000a81549073ffffffffffffffffffffffffffffffffffffffff02191690559055611c34565b8080611c2c90612d48565b915050611aab565b508073ffffffffffffffffffffffffffffffffffffffff167f2acc8ddea40e79db3cdaab23ba61163482a1fa9551a98c7388dd2f002676762660405160405180910390a250565b611c83611de5565b600073ffffffffffffffffffffffffffffffffffffffff168173ffffffffffffffffffffffffffffffffffffffff1603611cf2576040517f08c379a0000000000000000000000000000000000000000000000000000000008152600401611ce990613118565b60405180910390fd5b611cfb81611e63565b50565b6000600360008373ffffffffffffffffffffffffffffffffffffffff1673ffffffffffffffffffffffffffffffffffffffff16815260200190815260200160002060020160009054906101000a900460ff169050919050565b60606005805480602002602001604051908101604052809291908181526020018280548015611ddb57602002820191906000526020600020905b8160009054906101000a900473ffffffffffffffffffffffffffffffffffffffff1673ffffffffffffffffffffffffffffffffffffffff1681526020019060010190808311611d91575b5050505050905090565b611ded611f27565b73ffffffffffffffffffffffffffffffffffffffff16611e0b611217565b73ffffffffffffffffffffffffffffffffffffffff1614611e61576040517f08c379a0000000000000000000000000000000000000000000000000000000008152600401611e5890613184565b60405180910390fd5b565b60008060009054906101000a900473ffffffffffffffffffffffffffffffffffffffff169050816000806101000a81548173ffffffffffffffffffffffffffffffffffffffff021916908373ffffffffffffffffffffffffffffffffffffffff1602179055508173ffffffffffffffffffffffffffffffffffffffff168173ffffffffffffffffffffffffffffffffffffffff167f8be0079c531659141344cd1fd0a4f28419497f9722a3daafe3b4186f6b6457e060405160405180910390a35050565b600033905090565b508054611f3b90612721565b6000825580601f10611f4d5750611f6c565b601f016020900490600052602060002090810190611f6b9190611f6f565b5b50565b5b80821115611f88576000816000905550600101611f70565b5090565b6000604051905090565b600080fd5b600080fd5b600073ffffffffffffffffffffffffffffffffffffffff82169050919050565b6000611fcb82611fa0565b9050919050565b611fdb81611fc0565b8114611fe657600080fd5b50565b600081359050611ff881611fd2565b92915050565b60006020828403121561201457612013611f96565b5b600061202284828501611fe9565b91505092915050565b61203481611fc0565b82525050565b600081519050919050565b600082825260208201905092915050565b60005b83811015612074578082015181840152602081019050612059565b60008484015250505050565b6000601f19601f8301169050919050565b600061209c8261203a565b6120a68185612045565b93506120b6818560208601612056565b6120bf81612080565b840191505092915050565b60008115159050919050565b6120df816120ca565b82525050565b6000819050919050565b6120f8816120e5565b82525050565b600060c082019050612113600083018961202b565b81810360208301526121258188612091565b905081810360408301526121398187612091565b905061214860608301866120d6565b61215560808301856120ef565b61216260a08301846120d6565b979650505050505050565b600080fd5b600080fd5b7f4e487b7100000000000000000000000000000000000000000000000000000000600052604160045260246000fd5b6121af82612080565b810181811067ffffffffffffffff821117156121ce576121cd612177565b5b80604052505050565b60006121e1611f8c565b90506121ed82826121a6565b919050565b600067ffffffffffffffff82111561220d5761220c612177565b5b61221682612080565b9050602081019050919050565b82818337600083830152505050565b6000612245612240846121f2565b6121d7565b90508281526020810184848401111561226157612260612172565b5b61226c848285612223565b509392505050565b600082601f8301126122895761228861216d565b5b8135612299848260208601612232565b91505092915050565b6122ab816120e5565b81146122b657600080fd5b50565b6000813590506122c8816122a2565b92915050565b60008060008060008060c087890312156122eb576122ea611f96565b5b60006122f989828a01611fe9565b965050602087013567ffffffffffffffff81111561231a57612319611f9b565b5b61232689828a01612274565b955050604087013567ffffffffffffffff81111561234757612346611f9b565b5b61235389828a01612274565b945050606087013567ffffffffffffffff81111561237457612373611f9b565b5b61238089828a01612274565b935050608087013567ffffffffffffffff8111156123a1576123a0611f9b565b5b6123ad89828a01612274565b92505060a06123be89828a016122b9565b9150509295509295509295565b600080604083850312156123e2576123e1611f96565b5b600083013567ffffffffffffffff811115612400576123ff611f9b565b5b61240c85828601612274565b925050602083013567ffffffffffffffff81111561242d5761242c611f9b565b5b61243985828601612274565b9150509250929050565b60006020828403121561245957612458611f96565b5b6000612467848285016122b9565b91505092915050565b6000602082019050612485600083018461202b565b92915050565b6000819050919050565b60006124b06124ab6124a684611fa0565b61248b565b611fa0565b9050919050565b60006124c282612495565b9050919050565b60006124d4826124b7565b9050919050565b6124e4816124c9565b82525050565b60006020820190506124ff60008301846124db565b92915050565b600060608201905061251a600083018661202b565b818103602083015261252c8185612091565b905061253b60408301846120d6565b949350505050565b600060208201905061255860008301846120d6565b92915050565b600081519050919050565b600082825260208201905092915050565b6000819050602082019050919050565b61259381611fc0565b82525050565b60006125a5838361258a565b60208301905092915050565b6000602082019050919050565b60006125c98261255e565b6125d38185612569565b93506125de8361257a565b8060005b8381101561260f5781516125f68882612599565b9750612601836125b1565b9250506001810190506125e2565b5085935050505092915050565b6000602082019050818103600083015261263681846125be565b905092915050565b600061264982611fa0565b9050919050565b6126598161263e565b811461266457600080fd5b50565b60008135905061267681612650565b92915050565b60006020828403121561269257612691611f96565b5b60006126a084828501612667565b91505092915050565b6000602082840312156126bf576126be611f96565b5b600082013567ffffffffffffffff8111156126dd576126dc611f9b565b5b6126e984828501612274565b91505092915050565b7f4e487b7100000000000000000000000000000000000000000000000000000000600052602260045260246000fd5b6000600282049050600182168061273957607f821691505b60208210810361274c5761274b6126f2565b5b50919050565b7f4775696465206e6f742072656769737465726564000000000000000000000000600082015250565b6000612788601483612045565b915061279382612752565b602082019050919050565b600060208201905081810360008301526127b78161277b565b9050919050565b7f477569646520616c726561647920766572696669656400000000000000000000600082015250565b60006127f4601683612045565b91506127ff826127be565b602082019050919050565b60006020820190508181036000830152612823816127e7565b9050919050565b600060c08201905061283f600083018961202b565b81810360208301526128518188612091565b905081810360408301526128658187612091565b905081810360608301526128798186612091565b9050818103608083015261288d8185612091565b905061289c60a08301846120ef565b979650505050505050565b6000815190506128b6816122a2565b92915050565b6000602082840312156128d2576128d1611f96565b5b60006128e0848285016128a7565b91505092915050565b60006020820190506128fe60008301846120ef565b92915050565b7f496e76616c696420677569646520616464726573730000000000000000000000600082015250565b600061293a601583612045565b915061294582612904565b602082019050919050565b600060208201905081810360008301526129698161292d565b9050919050565b7f477569646520616c726561647920726567697374657265640000000000000000600082015250565b60006129a6601883612045565b91506129b182612970565b602082019050919050565b600060208201905081810360008301526129d581612999565b9050919050565b60008190508160005260206000209050919050565b60006020601f8301049050919050565b600082821b905092915050565b600060088302612a3e7fffffffffffffffffffffffffffffffffffffffffffffffffffffffffffffffff82612a01565b612a488683612a01565b95508019841693508086168417925050509392505050565b6000612a7b612a76612a71846120e5565b61248b565b6120e5565b9050919050565b6000819050919050565b612a9583612a60565b612aa9612aa182612a82565b848454612a0e565b825550505050565b600090565b612abe612ab1565b612ac9818484612a8c565b505050565b5b81811015612aed57612ae2600082612ab6565b600181019050612acf565b5050565b601f821115612b3257612b03816129dc565b612b0c846129f1565b81016020851015612b1b578190505b612b2f612b27856129f1565b830182612ace565b50505b505050565b600082821c905092915050565b6000612b5560001984600802612b37565b1980831691505092915050565b6000612b6e8383612b44565b9150826002028217905092915050565b612b878261203a565b67ffffffffffffffff811115612ba057612b9f612177565b5b612baa8254612721565b612bb5828285612af1565b600060209050601f831160018114612be85760008415612bd6578287015190505b612be08582612b62565b865550612c48565b601f198416612bf6866129dc565b60005b82811015612c1e57848901518255600182019150602085019450602081019050612bf9565b86831015612c3b5784890151612c37601f891682612b44565b8355505b6001600288020188555050505b505050505050565b60006040820190508181036000830152612c6a8185612091565b90508181036020830152612c7e8184612091565b90509392505050565b7f4e487b7100000000000000000000000000000000000000000000000000000000600052603260045260246000fd5b7f4e487b7100000000000000000000000000000000000000000000000000000000600052601160045260246000fd5b6000612cf0826120e5565b9150612cfb836120e5565b9250828203905081811115612d1357612d12612cb6565b5b92915050565b7f4e487b7100000000000000000000000000000000000000000000000000000000600052603160045260246000fd5b6000612d53826120e5565b91507fffffffffffffffffffffffffffffffffffffffffffffffffffffffffffffffff8203612d8557612d84612cb6565b5b600182019050919050565b7f4775696465206e6f742076657269666965640000000000000000000000000000600082015250565b6000612dc6601283612045565b9150612dd182612d90565b602082019050919050565b60006020820190508181036000830152612df581612db9565b9050919050565b7f5061796d656e7420616d6f756e74206d7573742062652067726561746572207460008201527f68616e207a65726f000000000000000000000000000000000000000000000000602082015250565b6000612e58602883612045565b9150612e6382612dfc565b604082019050919050565b60006020820190508181036000830152612e8781612e4b565b9050919050565b600081905092915050565b50565b6000612ea9600083612e8e565b9150612eb482612e99565b600082019050919050565b6000612eca82612e9c565b9150819050919050565b7f4661696c656420746f2073656e64204574686572000000000000000000000000600082015250565b6000612f0a601483612045565b9150612f1582612ed4565b602082019050919050565b60006020820190508181036000830152612f3981612efd565b9050919050565b7f496e76616c696420746f75726973742061646472657373000000000000000000600082015250565b6000612f76601783612045565b9150612f8182612f40565b602082019050919050565b60006020820190508181036000830152612fa581612f69565b9050919050565b7f546f757269737420616c72656164792072656769737465726564000000000000600082015250565b6000612fe2601a83612045565b9150612fed82612fac565b602082019050919050565b6000602082019050818103600083015261301181612fd5565b9050919050565b600060208201905081810360008301526130328184612091565b905092915050565b7f546f7572697374206e6f74207265676973746572656400000000000000000000600082015250565b6000613070601683612045565b915061307b8261303a565b602082019050919050565b6000602082019050818103600083015261309f81613063565b9050919050565b7f4f776e61626c653a206e6577206f776e657220697320746865207a65726f206160008201527f6464726573730000000000000000000000000000000000000000000000000000602082015250565b6000613102602683612045565b915061310d826130a6565b604082019050919050565b60006020820190508181036000830152613131816130f5565b9050919050565b7f4f776e61626c653a2063616c6c6572206973206e6f7420746865206f776e6572600082015250565b600061316e602083612045565b915061317982613138565b602082019050919050565b6000602082019050818103600083015261319d81613161565b905091905056fea2646970667358221220a703919ca5c723047befb108accfb794ea83361d5198ae2e4166d8d41e7379df64736f6c63430008140033",
  "linkReferences": {},
  "deployedLinkReferences": {}
}