{
  "_format": "hh-sol-artifact-1",
  "contractName": "SoulboundNFT",
  "sourceName": "contracts/SoulboundNFT.sol",
  "abi": [
    {
      "inputs": [
        {
          "internalType": "address",
          "name": "initialOwner",
          "type": "address"
        }
      ],
      "stateMutability": "nonpayable",
      "type": "constructor"
    },
    {
      "anonymous": false,
      "inputs": [
        {
          "indexed": true,
          "internalType": "address",
          "name": "owner",
          "type": "address"
        },
        {
          "indexed": true,
          "internalType": "address",
          "name": "approved",
          "type": "address"
        },
        {
          "indexed": true,
          "internalType": "uint256",
          "name": "tokenId",
          "type": "uint256"
        }
      ],
      "name": "Approval",
      "type": "event"
    },
    {
      "anonymous": false,
      "inputs": [
        {
          "indexed": true,
          "internalType": "address",
          "name": "owner",
          "type": "address"
        },
        {
          "indexed": true,
          "internalType": "address",
          "name": "operator",
          "type": "address"
        },
        {
          "indexed": false,
          "internalType": "bool",
          "name": "approved",
          "type": "bool"
        }
      ],
      "name": "ApprovalForAll",
      "type": "event"
    },
    {
      "anonymous": false,
      "inputs": [
        {
          "indexed": true,
          "internalType": "address",
          "name": "owner",
          "type": "address"
        },
        {
          "indexed": true,
          "internalType": "uint256",
          "name": "tokenId",
          "type": "uint256"
        },
        {
          "indexed": false,
          "internalType": "string",
          "name": "guideName",
          "type": "string"
        },
        {
          "indexed": false,
          "internalType": "string",
          "name": "serviceType",
          "type": "string"
        },
        {
          "indexed": false,
          "internalType": "string",
          "name": "areaOfExpertise",
          "type": "string"
        },
        {
          "indexed": false,
          "internalType": "string",
          "name": "location",
          "type": "string"
        },
        {
          "indexed": false,
          "internalType": "uint256",
          "name": "expiryDate",
          "type": "uint256"
        },
        {
          "indexed": false,
          "internalType": "uint256",
          "name": "verificationDate",
          "type": "uint256"
        }
      ],
      "name": "GuideCertified",
      "type": "event"
    },
    {
      "anonymous": false,
      "inputs": [
        {
          "indexed": true,
          "internalType": "address",
          "name": "previousOwner",
          "type": "address"
        },
        {
          "indexed": true,
          "internalType": "address",
          "name": "newOwner",
          "type": "address"
        }
      ],
      "name": "OwnershipTransferred",
      "type": "event"
    },
    {
      "anonymous": false,
      "inputs": [
        {
          "indexed": true,
          "internalType": "address",
          "name": "from",
          "type": "address"
        },
        {
          "indexed": true,
          "internalType": "address",
          "name": "to",
          "type": "address"
        },
        {
          "indexed": true,
          "internalType": "uint256",
          "name": "tokenId",
          "type": "uint256"
        }
      ],
      "name": "Transfer",
      "type": "event"
    },
    {
      "inputs": [
        {
          "internalType": "address",
          "name": "to",
          "type": "address"
        },
        {
          "internalType": "uint256",
          "name": "tokenId",
          "type": "uint256"
        }
      ],
      "name": "approve",
      "outputs": [],
      "stateMutability": "nonpayable",
      "type": "function"
    },
    {
      "inputs": [
        {
          "internalType": "address",
          "name": "owner",
          "type": "address"
        }
      ],
      "name": "balanceOf",
      "outputs": [
        {
          "internalType": "uint256",
          "name": "",
          "type": "uint256"
        }
      ],
      "stateMutability": "view",
      "type": "function"
    },
    {
      "inputs": [
        {
          "internalType": "uint256",
          "name": "",
          "type": "uint256"
        }
      ],
      "name": "certifications",
      "outputs": [
        {
          "internalType": "string",
          "name": "guideName",
          "type": "string"
        },
        {
          "internalType": "string",
          "name": "serviceType",
          "type": "string"
        },
        {
          "internalType": "string",
          "name": "areaOfExpertise",
          "type": "string"
        },
        {
          "internalType": "string",
          "name": "location",
          "type": "string"
        },
        {
          "internalType": "uint256",
          "name": "expiryDate",
          "type": "uint256"
        },
        {
          "internalType": "uint256",
          "name": "verificationDate",
          "type": "uint256"
        }
      ],
      "stateMutability": "view",
      "type": "function"
    },
    {
      "inputs": [
        {
          "internalType": "uint256",
          "name": "tokenId",
          "type": "uint256"
        }
      ],
      "name": "getApproved",
      "outputs": [
        {
          "internalType": "address",
          "name": "",
          "type": "address"
        }
      ],
      "stateMutability": "view",
      "type": "function"
    },
    {
      "inputs": [
        {
          "internalType": "address",
          "name": "owner",
          "type": "address"
        },
        {
          "internalType": "address",
          "name": "operator",
          "type": "address"
        }
      ],
      "name": "isApprovedForAll",
      "outputs": [
        {
          "internalType": "bool",
          "name": "",
          "type": "bool"
        }
      ],
      "stateMutability": "view",
      "type": "function"
    },
    {
      "inputs": [],
      "name": "name",
      "outputs": [
        {
          "internalType": "string",
          "name": "",
          "type": "string"
        }
      ],
      "stateMutability": "view",
      "type": "function"
    },
    {
      "inputs": [],
      "name": "owner",
      "outputs": [
        {
          "internalType": "address",
          "name": "",
          "type": "address"
        }
      ],
      "stateMutability": "view",
      "type": "function"
    },
    {
      "inputs": [
        {
          "internalType": "uint256",
          "name": "tokenId",
          "type": "uint256"
        }
      ],
      "name": "ownerOf",
      "outputs": [
        {
          "internalType": "address",
          "name": "",
          "type": "address"
        }
      ],
      "stateMutability": "view",
      "type": "function"
    },
    {
      "inputs": [],
      "name": "renounceOwnership",
      "outputs": [],
      "stateMutability": "nonpayable",
      "type": "function"
    },
    {
      "inputs": [
        {
          "internalType": "address",
          "name": "to",
          "type": "address"
        },
        {
          "internalType": "string",
          "name": "guideName",
          "type": "string"
        },
        {
          "internalType": "string",
          "name": "serviceType",
          "type": "string"
        },
        {
          "internalType": "string",
          "name": "areaOfExpertise",
          "type": "string"
        },
        {
          "internalType": "string",
          "name": "location",
          "type": "string"
        },
        {
          "internalType": "uint256",
          "name": "expiryDate",
          "type": "uint256"
        }
      ],
      "name": "safeMint",
      "outputs": [
        {
          "internalType": "uint256",
          "name": "",
          "type": "uint256"
        }
      ],
      "stateMutability": "nonpayable",
      "type": "function"
    },
    {
      "inputs": [
        {
          "internalType": "address",
          "name": "from",
          "type": "address"
        },
        {
          "internalType": "address",
          "name": "to",
          "type": "address"
        },
        {
          "internalType": "uint256",
          "name": "tokenId",
          "type": "uint256"
        }
      ],
      "name": "safeTransferFrom",
      "outputs": [],
      "stateMutability": "nonpayable",
      "type": "function"
    },
    {
      "inputs": [
        {
          "internalType": "address",
          "name": "from",
          "type": "address"
        },
        {
          "internalType": "address",
          "name": "to",
          "type": "address"
        },
        {
          "internalType": "uint256",
          "name": "tokenId",
          "type": "uint256"
        },
        {
          "internalType": "bytes",
          "name": "data",
          "type": "bytes"
        }
      ],
      "name": "safeTransferFrom",
      "outputs": [],
      "stateMutability": "nonpayable",
      "type": "function"
    },
    {
      "inputs": [
        {
          "internalType": "address",
          "name": "operator",
          "type": "address"
        },
        {
          "internalType": "bool",
          "name": "approved",
          "type": "bool"
        }
      ],
      "name": "setApprovalForAll",
      "outputs": [],
      "stateMutability": "nonpayable",
      "type": "function"
    },
    {
      "inputs": [
        {
          "internalType": "bytes4",
          "name": "interfaceId",
          "type": "bytes4"
        }
      ],
      "name": "supportsInterface",
      "outputs": [
        {
          "internalType": "bool",
          "name": "",
          "type": "bool"
        }
      ],
      "stateMutability": "view",
      "type": "function"
    },
    {
      "inputs": [],
      "name": "symbol",
      "outputs": [
        {
          "internalType": "string",
          "name": "",
          "type": "string"
        }
      ],
      "stateMutability": "view",
      "type": "function"
    },
    {
      "inputs": [
        {
          "internalType": "uint256",
          "name": "tokenId",
          "type": "uint256"
        }
      ],
      "name": "tokenURI",
      "outputs": [
        {
          "internalType": "string",
          "name": "",
          "type": "string"
        }
      ],
      "stateMutability": "view",
      "type": "function"
    },
    {
      "inputs": [
        {
          "internalType": "address",
          "name": "from",
          "type": "address"
        },
        {
          "internalType": "address",
          "name": "to",
          "type": "address"
        },
        {
          "internalType": "uint256",
          "name": "tokenId",
          "type": "uint256"
        }
      ],
      "name": "transferFrom",
      "outputs": [],
      "stateMutability": "nonpayable",
      "type": "function"
    },
    {
      "inputs": [
        {
          "internalType": "address",
          "name": "newOwner",
          "type": "address"
        }
      ],
      "name": "transferOwnership",
      "outputs": [],
      "stateMutability": "nonpayable",
      "type": "function"
    }
  ],
  "bytecode": "0x60806040523480156200001157600080fd5b506040516200382838038062003828833981810160405281019062000037919062000239565b6040518060400160405280601981526020017f536f756c626f756e6447756964654365727469666963617465000000000000008152506040518060400160405280600681526020017f5347434e465400000000000000000000000000000000000000000000000000008152508160009081620000b49190620004e5565b508060019081620000c69190620004e5565b505050620000e9620000dd6200010160201b60201c565b6200010960201b60201c565b620000fa816200010960201b60201c565b50620005cc565b600033905090565b6000600660009054906101000a900473ffffffffffffffffffffffffffffffffffffffff16905081600660006101000a81548173ffffffffffffffffffffffffffffffffffffffff021916908373ffffffffffffffffffffffffffffffffffffffff1602179055508173ffffffffffffffffffffffffffffffffffffffff168173ffffffffffffffffffffffffffffffffffffffff167f8be0079c531659141344cd1fd0a4f28419497f9722a3daafe3b4186f6b6457e060405160405180910390a35050565b600080fd5b600073ffffffffffffffffffffffffffffffffffffffff82169050919050565b60006200020182620001d4565b9050919050565b6200021381620001f4565b81146200021f57600080fd5b50565b600081519050620002338162000208565b92915050565b600060208284031215620002525762000251620001cf565b5b6000620002628482850162000222565b91505092915050565b600081519050919050565b7f4e487b7100000000000000000000000000000000000000000000000000000000600052604160045260246000fd5b7f4e487b7100000000000000000000000000000000000000000000000000000000600052602260045260246000fd5b60006002820490506001821680620002ed57607f821691505b602082108103620003035762000302620002a5565b5b50919050565b60008190508160005260206000209050919050565b60006020601f8301049050919050565b600082821b905092915050565b6000600883026200036d7fffffffffffffffffffffffffffffffffffffffffffffffffffffffffffffffff826200032e565b6200037986836200032e565b95508019841693508086168417925050509392505050565b6000819050919050565b6000819050919050565b6000620003c6620003c0620003ba8462000391565b6200039b565b62000391565b9050919050565b6000819050919050565b620003e283620003a5565b620003fa620003f182620003cd565b8484546200033b565b825550505050565b600090565b6200041162000402565b6200041e818484620003d7565b505050565b5b8181101562000446576200043a60008262000407565b60018101905062000424565b5050565b601f82111562000495576200045f8162000309565b6200046a846200031e565b810160208510156200047a578190505b6200049262000489856200031e565b83018262000423565b50505b505050565b600082821c905092915050565b6000620004ba600019846008026200049a565b1980831691505092915050565b6000620004d58383620004a7565b9150826002028217905092915050565b620004f0826200026b565b67ffffffffffffffff8111156200050c576200050b62000276565b5b620005188254620002d4565b620005258282856200044a565b600060209050601f8311600181146200055d576000841562000548578287015190505b620005548582620004c7565b865550620005c4565b601f1984166200056d8662000309565b60005b82811015620005975784890151825560018201915060208501945060208101905062000570565b86831015620005b75784890151620005b3601f891682620004a7565b8355505b6001600288020188555050505b505050505050565b61324c80620005dc6000396000f3fe608060405234801561001057600080fd5b50600436106101165760003560e01c8063715018a6116100a2578063a22cb46511610071578063a22cb465146102f8578063b88d4fde14610314578063c87b56dd14610330578063e985e9c514610360578063f2fde38b1461039057610116565b8063715018a6146102825780638da5cb5b1461028c57806393f51b56146102aa57806395d89b41146102da57610116565b806323b872dd116100e957806323b872dd146101b55780633c0359a4146101d157806342842e0e146102065780636352211e1461022257806370a082311461025257610116565b806301ffc9a71461011b57806306fdde031461014b578063081812fc14610169578063095ea7b314610199575b600080fd5b61013560048036038101906101309190611f1f565b6103ac565b6040516101429190611f67565b60405180910390f35b61015361048e565b6040516101609190612012565b60405180910390f35b610183600480360381019061017e919061206a565b610520565b60405161019091906120d8565b60405180910390f35b6101b360048036038101906101ae919061211f565b610566565b005b6101cf60048036038101906101ca919061215f565b61067d565b005b6101eb60048036038101906101e6919061206a565b6106dd565b6040516101fd969594939291906121c1565b60405180910390f35b610220600480360381019061021b919061215f565b610939565b005b61023c6004803603810190610237919061206a565b610959565b60405161024991906120d8565b60405180910390f35b61026c6004803603810190610267919061223e565b6109df565b604051610279919061226b565b60405180910390f35b61028a610a96565b005b610294610aaa565b6040516102a191906120d8565b60405180910390f35b6102c460048036038101906102bf91906123bb565b610ad4565b6040516102d1919061226b565b60405180910390f35b6102e2610c16565b6040516102ef9190612012565b60405180910390f35b610312600480360381019061030d91906124e4565b610ca8565b005b61032e600480360381019061032991906125c5565b610cbe565b005b61034a6004803603810190610345919061206a565b610d20565b6040516103579190612012565b60405180910390f35b61037a60048036038101906103759190612648565b610d88565b6040516103879190611f67565b60405180910390f35b6103aa60048036038101906103a5919061223e565b610e1c565b005b60007f80ac58cd000000000000000000000000000000000000000000000000000000007bffffffffffffffffffffffffffffffffffffffffffffffffffffffff1916827bffffffffffffffffffffffffffffffffffffffffffffffffffffffff1916148061047757507f5b5e139f000000000000000000000000000000000000000000000000000000007bffffffffffffffffffffffffffffffffffffffffffffffffffffffff1916827bffffffffffffffffffffffffffffffffffffffffffffffffffffffff1916145b80610487575061048682610e9f565b5b9050919050565b60606000805461049d906126b7565b80601f01602080910402602001604051908101604052809291908181526020018280546104c9906126b7565b80156105165780601f106104eb57610100808354040283529160200191610516565b820191906000526020600020905b8154815290600101906020018083116104f957829003601f168201915b5050505050905090565b600061052b82610f09565b6004600083815260200190815260200160002060009054906101000a900473ffffffffffffffffffffffffffffffffffffffff169050919050565b600061057182610959565b90508073ffffffffffffffffffffffffffffffffffffffff168373ffffffffffffffffffffffffffffffffffffffff16036105e1576040517f08c379a00000000000000000000000000000000000000000000000000000000081526004016105d89061275a565b60405180910390fd5b8073ffffffffffffffffffffffffffffffffffffffff16610600610f54565b73ffffffffffffffffffffffffffffffffffffffff16148061062f575061062e81610629610f54565b610d88565b5b61066e576040517f08c379a0000000000000000000000000000000000000000000000000000000008152600401610665906127ec565b60405180910390fd5b6106788383610f5c565b505050565b61068e610688610f54565b82611015565b6106cd576040517f08c379a00000000000000000000000000000000000000000000000000000000081526004016106c49061287e565b60405180910390fd5b6106d88383836110aa565b505050565b6008602052806000526040600020600091509050806000018054610700906126b7565b80601f016020809104026020016040519081016040528092919081815260200182805461072c906126b7565b80156107795780601f1061074e57610100808354040283529160200191610779565b820191906000526020600020905b81548152906001019060200180831161075c57829003601f168201915b50505050509080600101805461078e906126b7565b80601f01602080910402602001604051908101604052809291908181526020018280546107ba906126b7565b80156108075780601f106107dc57610100808354040283529160200191610807565b820191906000526020600020905b8154815290600101906020018083116107ea57829003601f168201915b50505050509080600201805461081c906126b7565b80601f0160208091040260200160405190810160405280929190818152602001828054610848906126b7565b80156108955780601f1061086a57610100808354040283529160200191610895565b820191906000526020600020905b81548152906001019060200180831161087857829003601f168201915b5050505050908060030180546108aa906126b7565b80601f01602080910402602001604051908101604052809291908181526020018280546108d6906126b7565b80156109235780601f106108f857610100808354040283529160200191610923565b820191906000526020600020905b81548152906001019060200180831161090657829003601f168201915b5050505050908060040154908060050154905086565b61095483838360405180602001604052806000815250610cbe565b505050565b600080610965836113a3565b9050600073ffffffffffffffffffffffffffffffffffffffff168173ffffffffffffffffffffffffffffffffffffffff16036109d6576040517f08c379a00000000000000000000000000000000000000000000000000000000081526004016109cd906128ea565b60405180910390fd5b80915050919050565b60008073ffffffffffffffffffffffffffffffffffffffff168273ffffffffffffffffffffffffffffffffffffffff1603610a4f576040517f08c379a0000000000000000000000000000000000000000000000000000000008152600401610a469061297c565b60405180910390fd5b600360008373ffffffffffffffffffffffffffffffffffffffff1673ffffffffffffffffffffffffffffffffffffffff168152602001908152602001600020549050919050565b610a9e6113e0565b610aa8600061145e565b565b6000600660009054906101000a900473ffffffffffffffffffffffffffffffffffffffff16905090565b6000610ade6113e0565b610ae86007611524565b6000610af4600761153a565b9050610b008882611548565b6040518060c0016040528088815260200187815260200186815260200185815260200184815260200142815250600860008381526020019081526020016000206000820151816000019081610b559190612b48565b506020820151816001019081610b6b9190612b48565b506040820151816002019081610b819190612b48565b506060820151816003019081610b979190612b48565b506080820151816004015560a08201518160050155905050808873ffffffffffffffffffffffffffffffffffffffff167fa8b9178ee47e608d3c078e9b2043a4fcfa7de5d0d5c482f9823dd1a994e92c6e898989898942604051610c00969594939291906121c1565b60405180910390a3809150509695505050505050565b606060018054610c25906126b7565b80601f0160208091040260200160405190810160405280929190818152602001828054610c51906126b7565b8015610c9e5780601f10610c7357610100808354040283529160200191610c9e565b820191906000526020600020905b815481529060010190602001808311610c8157829003601f168201915b5050505050905090565b610cba610cb3610f54565b8383611566565b5050565b610ccf610cc9610f54565b83611015565b610d0e576040517f08c379a0000000000000000000000000000000000000000000000000000000008152600401610d059061287e565b60405180910390fd5b610d1a848484846116d2565b50505050565b6060610d2b82610f09565b6000610d3561172e565b90506000815111610d555760405180602001604052806000815250610d80565b80610d5f8461176b565b604051602001610d70929190612c56565b6040516020818303038152906040525b915050919050565b6000600560008473ffffffffffffffffffffffffffffffffffffffff1673ffffffffffffffffffffffffffffffffffffffff16815260200190815260200160002060008373ffffffffffffffffffffffffffffffffffffffff1673ffffffffffffffffffffffffffffffffffffffff16815260200190815260200160002060009054906101000a900460ff16905092915050565b610e246113e0565b600073ffffffffffffffffffffffffffffffffffffffff168173ffffffffffffffffffffffffffffffffffffffff1603610e93576040517f08c379a0000000000000000000000000000000000000000000000000000000008152600401610e8a90612cec565b60405180910390fd5b610e9c8161145e565b50565b60007f01ffc9a7000000000000000000000000000000000000000000000000000000007bffffffffffffffffffffffffffffffffffffffffffffffffffffffff1916827bffffffffffffffffffffffffffffffffffffffffffffffffffffffff1916149050919050565b610f1281611839565b610f51576040517f08c379a0000000000000000000000000000000000000000000000000000000008152600401610f48906128ea565b60405180910390fd5b50565b600033905090565b816004600083815260200190815260200160002060006101000a81548173ffffffffffffffffffffffffffffffffffffffff021916908373ffffffffffffffffffffffffffffffffffffffff160217905550808273ffffffffffffffffffffffffffffffffffffffff16610fcf83610959565b73ffffffffffffffffffffffffffffffffffffffff167f8c5be1e5ebec7d5bd14f71427d1e84f3dd0314c0f7b2291e5b200ac8c7c3b92560405160405180910390a45050565b60008061102183610959565b90508073ffffffffffffffffffffffffffffffffffffffff168473ffffffffffffffffffffffffffffffffffffffff16148061106357506110628185610d88565b5b806110a157508373ffffffffffffffffffffffffffffffffffffffff1661108984610520565b73ffffffffffffffffffffffffffffffffffffffff16145b91505092915050565b8273ffffffffffffffffffffffffffffffffffffffff166110ca82610959565b73ffffffffffffffffffffffffffffffffffffffff1614611120576040517f08c379a000000000000000000000000000000000000000000000000000000000815260040161111790612d7e565b60405180910390fd5b600073ffffffffffffffffffffffffffffffffffffffff168273ffffffffffffffffffffffffffffffffffffffff160361118f576040517f08c379a000000000000000000000000000000000000000000000000000000000815260040161118690612e10565b60405180910390fd5b61119c838383600161187a565b8273ffffffffffffffffffffffffffffffffffffffff166111bc82610959565b73ffffffffffffffffffffffffffffffffffffffff1614611212576040517f08c379a000000000000000000000000000000000000000000000000000000000815260040161120990612d7e565b60405180910390fd5b6004600082815260200190815260200160002060006101000a81549073ffffffffffffffffffffffffffffffffffffffff02191690556001600360008573ffffffffffffffffffffffffffffffffffffffff1673ffffffffffffffffffffffffffffffffffffffff168152602001908152602001600020600082825403925050819055506001600360008473ffffffffffffffffffffffffffffffffffffffff1673ffffffffffffffffffffffffffffffffffffffff16815260200190815260200160002060008282540192505081905550816002600083815260200190815260200160002060006101000a81548173ffffffffffffffffffffffffffffffffffffffff021916908373ffffffffffffffffffffffffffffffffffffffff160217905550808273ffffffffffffffffffffffffffffffffffffffff168473ffffffffffffffffffffffffffffffffffffffff167fddf252ad1be2c89b69c2b068fc378daa952ba7f163c4a11628f55a4df523b3ef60405160405180910390a461139e8383836001611932565b505050565b60006002600083815260200190815260200160002060009054906101000a900473ffffffffffffffffffffffffffffffffffffffff169050919050565b6113e8610f54565b73ffffffffffffffffffffffffffffffffffffffff16611406610aaa565b73ffffffffffffffffffffffffffffffffffffffff161461145c576040517f08c379a000000000000000000000000000000000000000000000000000000000815260040161145390612e7c565b60405180910390fd5b565b6000600660009054906101000a900473ffffffffffffffffffffffffffffffffffffffff16905081600660006101000a81548173ffffffffffffffffffffffffffffffffffffffff021916908373ffffffffffffffffffffffffffffffffffffffff1602179055508173ffffffffffffffffffffffffffffffffffffffff168173ffffffffffffffffffffffffffffffffffffffff167f8be0079c531659141344cd1fd0a4f28419497f9722a3daafe3b4186f6b6457e060405160405180910390a35050565b6001816000016000828254019250508190555050565b600081600001549050919050565b611562828260405180602001604052806000815250611938565b5050565b8173ffffffffffffffffffffffffffffffffffffffff168373ffffffffffffffffffffffffffffffffffffffff16036115d4576040517f08c379a00000000000000000000000000000000000000000000000000000000081526004016115cb90612ee8565b60405180910390fd5b80600560008573ffffffffffffffffffffffffffffffffffffffff1673ffffffffffffffffffffffffffffffffffffffff16815260200190815260200160002060008473ffffffffffffffffffffffffffffffffffffffff1673ffffffffffffffffffffffffffffffffffffffff16815260200190815260200160002060006101000a81548160ff0219169083151502179055508173ffffffffffffffffffffffffffffffffffffffff168373ffffffffffffffffffffffffffffffffffffffff167f17307eab39ab6107e8899845ad3d59bd9653f200f220920489ca2b5937696c31836040516116c59190611f67565b60405180910390a3505050565b6116dd8484846110aa565b6116e984848484611993565b611728576040517f08c379a000000000000000000000000000000000000000000000000000000000815260040161171f90612f7a565b60405180910390fd5b50505050565b60606040518060400160405280601c81526020017f68747470733a2f2f6578616d706c652e636f6d2f6170692f6e66742f00000000815250905090565b60606000600161177a84611b1a565b01905060008167ffffffffffffffff81111561179957611798612290565b5b6040519080825280601f01601f1916602001820160405280156117cb5781602001600182028036833780820191505090505b509050600082602001820190505b60011561182e578080600190039150507f3031323334353637383961626364656600000000000000000000000000000000600a86061a8153600a858161182257611821612f9a565b5b049450600085036117d9575b819350505050919050565b60008073ffffffffffffffffffffffffffffffffffffffff1661185b836113a3565b73ffffffffffffffffffffffffffffffffffffffff1614159050919050565b600073ffffffffffffffffffffffffffffffffffffffff168473ffffffffffffffffffffffffffffffffffffffff1614806118e15750600073ffffffffffffffffffffffffffffffffffffffff168373ffffffffffffffffffffffffffffffffffffffff16145b611920576040517f08c379a00000000000000000000000000000000000000000000000000000000081526004016119179061303b565b60405180910390fd5b61192c84848484611c6d565b50505050565b50505050565b6119428383611c73565b61194f6000848484611993565b61198e576040517f08c379a000000000000000000000000000000000000000000000000000000000815260040161198590612f7a565b60405180910390fd5b505050565b60006119b48473ffffffffffffffffffffffffffffffffffffffff16611e90565b15611b0d578373ffffffffffffffffffffffffffffffffffffffff1663150b7a026119dd610f54565b8786866040518563ffffffff1660e01b81526004016119ff94939291906130b0565b6020604051808303816000875af1925050508015611a3b57506040513d601f19601f82011682018060405250810190611a389190613111565b60015b611abd573d8060008114611a6b576040519150601f19603f3d011682016040523d82523d6000602084013e611a70565b606091505b506000815103611ab5576040517f08c379a0000000000000000000000000000000000000000000000000000000008152600401611aac90612f7a565b60405180910390fd5b805181602001fd5b63150b7a0260e01b7bffffffffffffffffffffffffffffffffffffffffffffffffffffffff1916817bffffffffffffffffffffffffffffffffffffffffffffffffffffffff191614915050611b12565b600190505b949350505050565b600080600090507a184f03e93ff9f4daa797ed6e38ed64bf6a1f0100000000000000008310611b78577a184f03e93ff9f4daa797ed6e38ed64bf6a1f0100000000000000008381611b6e57611b6d612f9a565b5b0492506040810190505b6d04ee2d6d415b85acef81000000008310611bb5576d04ee2d6d415b85acef81000000008381611bab57611baa612f9a565b5b0492506020810190505b662386f26fc100008310611be457662386f26fc100008381611bda57611bd9612f9a565b5b0492506010810190505b6305f5e1008310611c0d576305f5e1008381611c0357611c02612f9a565b5b0492506008810190505b6127108310611c32576127108381611c2857611c27612f9a565b5b0492506004810190505b60648310611c555760648381611c4b57611c4a612f9a565b5b0492506002810190505b600a8310611c64576001810190505b80915050919050565b50505050565b600073ffffffffffffffffffffffffffffffffffffffff168273ffffffffffffffffffffffffffffffffffffffff1603611ce2576040517f08c379a0000000000000000000000000000000000000000000000000000000008152600401611cd99061318a565b60405180910390fd5b611ceb81611839565b15611d2b576040517f08c379a0000000000000000000000000000000000000000000000000000000008152600401611d22906131f6565b60405180910390fd5b611d3960008383600161187a565b611d4281611839565b15611d82576040517f08c379a0000000000000000000000000000000000000000000000000000000008152600401611d79906131f6565b60405180910390fd5b6001600360008473ffffffffffffffffffffffffffffffffffffffff1673ffffffffffffffffffffffffffffffffffffffff16815260200190815260200160002060008282540192505081905550816002600083815260200190815260200160002060006101000a81548173ffffffffffffffffffffffffffffffffffffffff021916908373ffffffffffffffffffffffffffffffffffffffff160217905550808273ffffffffffffffffffffffffffffffffffffffff16600073ffffffffffffffffffffffffffffffffffffffff167fddf252ad1be2c89b69c2b068fc378daa952ba7f163c4a11628f55a4df523b3ef60405160405180910390a4611e8c600083836001611932565b5050565b6000808273ffffffffffffffffffffffffffffffffffffffff163b119050919050565b6000604051905090565b600080fd5b600080fd5b60007fffffffff0000000000000000000000000000000000000000000000000000000082169050919050565b611efc81611ec7565b8114611f0757600080fd5b50565b600081359050611f1981611ef3565b92915050565b600060208284031215611f3557611f34611ebd565b5b6000611f4384828501611f0a565b91505092915050565b60008115159050919050565b611f6181611f4c565b82525050565b6000602082019050611f7c6000830184611f58565b92915050565b600081519050919050565b600082825260208201905092915050565b60005b83811015611fbc578082015181840152602081019050611fa1565b60008484015250505050565b6000601f19601f8301169050919050565b6000611fe482611f82565b611fee8185611f8d565b9350611ffe818560208601611f9e565b61200781611fc8565b840191505092915050565b6000602082019050818103600083015261202c8184611fd9565b905092915050565b6000819050919050565b61204781612034565b811461205257600080fd5b50565b6000813590506120648161203e565b92915050565b6000602082840312156120805761207f611ebd565b5b600061208e84828501612055565b91505092915050565b600073ffffffffffffffffffffffffffffffffffffffff82169050919050565b60006120c282612097565b9050919050565b6120d2816120b7565b82525050565b60006020820190506120ed60008301846120c9565b92915050565b6120fc816120b7565b811461210757600080fd5b50565b600081359050612119816120f3565b92915050565b6000806040838503121561213657612135611ebd565b5b60006121448582860161210a565b925050602061215585828601612055565b9150509250929050565b60008060006060848603121561217857612177611ebd565b5b60006121868682870161210a565b93505060206121978682870161210a565b92505060406121a886828701612055565b9150509250925092565b6121bb81612034565b82525050565b600060c08201905081810360008301526121db8189611fd9565b905081810360208301526121ef8188611fd9565b905081810360408301526122038187611fd9565b905081810360608301526122178186611fd9565b905061222660808301856121b2565b61223360a08301846121b2565b979650505050505050565b60006020828403121561225457612253611ebd565b5b60006122628482850161210a565b91505092915050565b600060208201905061228060008301846121b2565b92915050565b600080fd5b600080fd5b7f4e487b7100000000000000000000000000000000000000000000000000000000600052604160045260246000fd5b6122c882611fc8565b810181811067ffffffffffffffff821117156122e7576122e6612290565b5b80604052505050565b60006122fa611eb3565b905061230682826122bf565b919050565b600067ffffffffffffffff82111561232657612325612290565b5b61232f82611fc8565b9050602081019050919050565b82818337600083830152505050565b600061235e6123598461230b565b6122f0565b90508281526020810184848401111561237a5761237961228b565b5b61238584828561233c565b509392505050565b600082601f8301126123a2576123a1612286565b5b81356123b284826020860161234b565b91505092915050565b60008060008060008060c087890312156123d8576123d7611ebd565b5b60006123e689828a0161210a565b965050602087013567ffffffffffffffff81111561240757612406611ec2565b5b61241389828a0161238d565b955050604087013567ffffffffffffffff81111561243457612433611ec2565b5b61244089828a0161238d565b945050606087013567ffffffffffffffff81111561246157612460611ec2565b5b61246d89828a0161238d565b935050608087013567ffffffffffffffff81111561248e5761248d611ec2565b5b61249a89828a0161238d565b92505060a06124ab89828a01612055565b9150509295509295509295565b6124c181611f4c565b81146124cc57600080fd5b50565b6000813590506124de816124b8565b92915050565b600080604083850312156124fb576124fa611ebd565b5b60006125098582860161210a565b925050602061251a858286016124cf565b9150509250929050565b600067ffffffffffffffff82111561253f5761253e612290565b5b61254882611fc8565b9050602081019050919050565b600061256861256384612524565b6122f0565b9050828152602081018484840111156125845761258361228b565b5b61258f84828561233c565b509392505050565b600082601f8301126125ac576125ab612286565b5b81356125bc848260208601612555565b91505092915050565b600080600080608085870312156125df576125de611ebd565b5b60006125ed8782880161210a565b94505060206125fe8782880161210a565b935050604061260f87828801612055565b925050606085013567ffffffffffffffff8111156126305761262f611ec2565b5b61263c87828801612597565b91505092959194509250565b6000806040838503121561265f5761265e611ebd565b5b600061266d8582860161210a565b925050602061267e8582860161210a565b9150509250929050565b7f4e487b7100000000000000000000000000000000000000000000000000000000600052602260045260246000fd5b600060028204905060018216806126cf57607f821691505b6020821081036126e2576126e1612688565b5b50919050565b7f4552433732313a20617070726f76616c20746f2063757272656e74206f776e6560008201527f7200000000000000000000000000000000000000000000000000000000000000602082015250565b6000612744602183611f8d565b915061274f826126e8565b604082019050919050565b6000602082019050818103600083015261277381612737565b9050919050565b7f4552433732313a20617070726f76652063616c6c6572206973206e6f7420746f60008201527f6b656e206f776e6572206f7220617070726f76656420666f7220616c6c000000602082015250565b60006127d6603d83611f8d565b91506127e18261277a565b604082019050919050565b60006020820190508181036000830152612805816127c9565b9050919050565b7f4552433732313a2063616c6c6572206973206e6f7420746f6b656e206f776e6560008201527f72206f7220617070726f76656400000000000000000000000000000000000000602082015250565b6000612868602d83611f8d565b91506128738261280c565b604082019050919050565b600060208201905081810360008301526128978161285b565b9050919050565b7f4552433732313a20696e76616c696420746f6b656e2049440000000000000000600082015250565b60006128d4601883611f8d565b91506128df8261289e565b602082019050919050565b60006020820190508181036000830152612903816128c7565b9050919050565b7f4552433732313a2061646472657373207a65726f206973206e6f74206120766160008201527f6c6964206f776e65720000000000000000000000000000000000000000000000602082015250565b6000612966602983611f8d565b91506129718261290a565b604082019050919050565b6000602082019050818103600083015261299581612959565b9050919050565b60008190508160005260206000209050919050565b60006020601f8301049050919050565b600082821b905092915050565b6000600883026129fe7fffffffffffffffffffffffffffffffffffffffffffffffffffffffffffffffff826129c1565b612a0886836129c1565b95508019841693508086168417925050509392505050565b6000819050919050565b6000612a45612a40612a3b84612034565b612a20565b612034565b9050919050565b6000819050919050565b612a5f83612a2a565b612a73612a6b82612a4c565b8484546129ce565b825550505050565b600090565b612a88612a7b565b612a93818484612a56565b505050565b5b81811015612ab757612aac600082612a80565b600181019050612a99565b5050565b601f821115612afc57612acd8161299c565b612ad6846129b1565b81016020851015612ae5578190505b612af9612af1856129b1565b830182612a98565b50505b505050565b600082821c905092915050565b6000612b1f60001984600802612b01565b1980831691505092915050565b6000612b388383612b0e565b9150826002028217905092915050565b612b5182611f82565b67ffffffffffffffff811115612b6a57612b69612290565b5b612b7482546126b7565b612b7f828285612abb565b600060209050601f831160018114612bb25760008415612ba0578287015190505b612baa8582612b2c565b865550612c12565b601f198416612bc08661299c565b60005b82811015612be857848901518255600182019150602085019450602081019050612bc3565b86831015612c055784890151612c01601f891682612b0e565b8355505b6001600288020188555050505b505050505050565b600081905092915050565b6000612c3082611f82565b612c3a8185612c1a565b9350612c4a818560208601611f9e565b80840191505092915050565b6000612c628285612c25565b9150612c6e8284612c25565b91508190509392505050565b7f4f776e61626c653a206e6577206f776e657220697320746865207a65726f206160008201527f6464726573730000000000000000000000000000000000000000000000000000602082015250565b6000612cd6602683611f8d565b9150612ce182612c7a565b604082019050919050565b60006020820190508181036000830152612d0581612cc9565b9050919050565b7f4552433732313a207472616e736665722066726f6d20696e636f72726563742060008201527f6f776e6572000000000000000000000000000000000000000000000000000000602082015250565b6000612d68602583611f8d565b9150612d7382612d0c565b604082019050919050565b60006020820190508181036000830152612d9781612d5b565b9050919050565b7f4552433732313a207472616e7366657220746f20746865207a65726f2061646460008201527f7265737300000000000000000000000000000000000000000000000000000000602082015250565b6000612dfa602483611f8d565b9150612e0582612d9e565b604082019050919050565b60006020820190508181036000830152612e2981612ded565b9050919050565b7f4f776e61626c653a2063616c6c6572206973206e6f7420746865206f776e6572600082015250565b6000612e66602083611f8d565b9150612e7182612e30565b602082019050919050565b60006020820190508181036000830152612e9581612e59565b9050919050565b7f4552433732313a20617070726f766520746f2063616c6c657200000000000000600082015250565b6000612ed2601983611f8d565b9150612edd82612e9c565b602082019050919050565b60006020820190508181036000830152612f0181612ec5565b9050919050565b7f4552433732313a207472616e7366657220746f206e6f6e20455243373231526560008201527f63656976657220696d706c656d656e7465720000000000000000000000000000602082015250565b6000612f64603283611f8d565b9150612f6f82612f08565b604082019050919050565b60006020820190508181036000830152612f9381612f57565b9050919050565b7f4e487b7100000000000000000000000000000000000000000000000000000000600052601260045260246000fd5b7f536f756c626f756e643a204e46542063616e6e6f74206265207472616e73666560008201527f72726564206166746572206d696e74696e670000000000000000000000000000602082015250565b6000613025603283611f8d565b915061303082612fc9565b604082019050919050565b6000602082019050818103600083015261305481613018565b9050919050565b600081519050919050565b600082825260208201905092915050565b60006130828261305b565b61308c8185613066565b935061309c818560208601611f9e565b6130a581611fc8565b840191505092915050565b60006080820190506130c560008301876120c9565b6130d260208301866120c9565b6130df60408301856121b2565b81810360608301526130f18184613077565b905095945050505050565b60008151905061310b81611ef3565b92915050565b60006020828403121561312757613126611ebd565b5b6000613135848285016130fc565b91505092915050565b7f4552433732313a206d696e7420746f20746865207a65726f2061646472657373600082015250565b6000613174602083611f8d565b915061317f8261313e565b602082019050919050565b600060208201905081810360008301526131a381613167565b9050919050565b7f4552433732313a20746f6b656e20616c7265616479206d696e74656400000000600082015250565b60006131e0601c83611f8d565b91506131eb826131aa565b602082019050919050565b6000602082019050818103600083015261320f816131d3565b905091905056fea2646970667358221220cc8f209760463437e39f51448a5c715f2d31b1230f437c8b2bd7414f99afe2b764736f6c63430008140033",
  "linkReferences": {},
  "deployedLinkReferences": {}
}